:02000004085F93
:10B0000000B05F08FCFF5F0800000600200005019B
:08B0100004017C1500000000A2
:10B018001348144908B5884205D0134A824202D021
:10B02800124B121A98471248124A0021124B121A50
:10B03800984712481249884205D0124A824202D0E3
:10B048000A4B121A984710481049884205D0104AEE
:10B05800824202D0054B121A9847014808BD00BF2A
:10B0680068AD071048FA5F08E0AD07102D0D111004
:10B07800E0AD0710E8AF0710A10E111050B63F025F
:10B08800A8B05F0858B63F0258B63F02B0B05F0894
:0CB09800F0FF3F0219B05F08000000004C
:08B0A8009CB05F0820F73F0295
:10B0B00010F8012B11F8013B012A28BF9A42F7D062
:10B0C000D01A7047034613F8012B002AFBD1181A37
:10B0D0000138704770B503F0F7FB0025054E064CAC
:10B0E000A41BA408AC4200D170BD56F8043B98479D
:10B0F0000135F7E7CCFF3F02F0FF3F0200F0E2BB73
:10B1000008B500F05FFCBDE8084003F095BB01F016
:10B110005DB901F05BB901F067B901F065B90000F4
:10B120000C2008B5024A034900F09EFFFEE700BF6D
:10B13000E9C13F0230F73F020078B0FA80F04009E1
:10B140007047012303707047704700000122024BD3
:10B1500000201A70704700BF48AE071010B50446B3
:10B16000094B036002F094F8214602F0CBFA03F099
:10B1700097FA03F087FA2046044B40F8043B02F0AC
:10B180005DF9204610BD00BF9CFA3F0284FA3F02E1
:10B1900010B50446FFF7E2FF20462421FFF7BDFF6C
:10B1A000204610BD10B54FF0200C04460846002183
:10B1B0008AB0CDE90023CDE902C10B4602AA21687D
:10B1C00000F060FF0AB010BD0EB403B503AB53F836
:10B1D000042B32210193FFF7E5FF02B05DF804EB89
:10B1E00003B070470EB403B503AB53F8042B1E2114
:10B1F0000193FFF7D7FF02B05DF804EB03B070478F
:10B200000EB403B503AB53F8042B28210193FFF7C9
:10B21000C9FF02B05DF804EB03B0704738B50023F6
:10B220000C4C0D4D236003F059FC03681B699847D3
:10B2300000280DDD03F052FC03685B699847FC2889
:10B2400008BF1020236845F8230001332360EAE794
:10B2500038BD00BF44AE071004AE071008B503F0B8
:10B260003DFC03F0B0F90021092003F09DFB002113
:10B27000082003F099FBBDE808400021132003F0EB
:10B2800093BB00002DE9F0476B49A6B007466B4819
:10B29000FFF7A8FF03F022FC4FF4E13103F090F92F
:10B2A00003F01CFC03680625DB6998470121132085
:10B2B00003F07AFB0121132003F087FB41F2883071
:10B2C00001F0E6F85E495D48FFF78CFF002113208E
:10B2D00003F07BFB322001F0DBF80121132003F0A7
:10B2E00074FB322001F0D4F856495448FFF77AFF36
:10B2F000554E564C4FF0080803F0F0FB0368302120
:10B300009B68984703F0EAFB036820219B689847F5
:10B31000C82001F0BDF8B8F10108EDD103F0DEFB63
:10B320000368DB699847FFF779FF3368012B09DD74
:10B330009A1E54F82220142A04D1013B54F82330D9
:10B34000102B0CD0013DD5D1FFF788FF40493B4879
:10B35000FFF73AFF0225284626B0BDE8F08703F044
:10B36000BDFB0368DB6998473A493448FFF73AFF69
:10B3700003F0B4FB036875219B68984703F0AEFBAC
:10B38000036820219B689847C82001F081F803F0EA
:10B39000A5FB0368DB699847FFF740FF3368032B81
:10B3A0000EDD1A1F54F822201E2A09D1DA1E54F885
:10B3B0002220952A04D1023B54F823300F2B07D0CA
:10B3C000FFF74CFF24491D48FFF7FEFE0325C2E7A7
:10B3D00003F084FB0368DB69984720491748FFF7AF
:10B3E00001FF03F07BFB036852219B68984703F041
:10B3F00075FB036820219B689847C82001F048F836
:10B4000003F06CFB0368DB699847FFF707FF3368BD
:10B41000012B09DD9A1E54F82220142A04D1013B85
:10B4200054F82330102B1DD0FFF718FF0C490348A8
:10B43000FFF7CAFE04258EE745F73F0264AE07100A
:10B440006BF73F0280F73F0244AE071004AE0710CF
:10B450009CF73F02B7F73F02D1F73F02F7F73F02F1
:10B4600006F83F0203F03AFB0368DB699847854919
:10B470008548FFF7B7FE03F031FB036842219B6864
:10B48000984703F02BFB036886219B68984703F0DD
:10B4900025FB036800219B68984703F01FFB0368A6
:10B4A00000219B68984703F019FB036801219B6802
:10B4B000984703F013FB036801219B68984703F04A
:10B4C0000DFB036801219B68984703F007FB0368A5
:10B4D00001219B68984703F001FB036803219B68E7
:10B4E000984703F0FBFA0368FF219B68984703F035
:10B4F000F5FA0368FF219B68984703F0EFFA0368A9
:10B50000FF219B68984703F0E9FA0368FF219B68D5
:10B51000984703F0E3FA036800219B68984703F01B
:10B52000DDFA036880219B68984703F0D7FA036827
:10B5300004219B68984703F0D1FA036800219B68B7
:10B54000984703F0CBFA036800219B68984703F003
:10B55000C5FA036800219B68984703F0BFFA0368A7
:10B5600080219B68984703F0B9FA036800219B6823
:10B57000984703F0B3FA036820219B68984732206C
:10B5800000F086FFFFF74AFE3368012B06DCFFF769
:10B5900065FE3E493C48FFF717FE71E09A1E54F8DD
:10B5A0002220142AF3D1013B54F82330102BEED182
:10B5B00037493548FFF716FE03F090FA0368452136
:10B5C0009B68984703F08AFA036805219B689847AF
:10B5D00003F084FA036804219B68984703F07EFA1D
:10B5E0000368D7219B68984703F078FA0368C22163
:10B5F0009B68984703F072FA036800219B6898479C
:10B6000003F06CFA036820219B689847322000F011
:10B610003FFFFFF703FE3368012BB8DD9A1E54F895
:10B620002220142AB3D1013B54F82330102BAED181
:10B6300018491548FFF7D6FD03F050FA036850216A
:10B640009B68984703F04AFA036820219B68984753
:10B65000322000F01DFFFFF7E1FD3368012B09DD0B
:10B660009A1E54F82220142A04D1013B54F82330A6
:10B67000102B11D0FFF7F2FD04490348FFF7B2FD8C
:10B68000052568E628F83F0264AE071047F83F0238
:10B690007EF83F02A6F83F02384600F03EFF6B49B5
:10B6A000019006A802F07FFD394602A800F02EFFA7
:10B6B00002A906A802F0FEFD654902F007FE019A04
:10B6C00001686448FFF78EFD02A802F021FD06A87C
:10B6D00002F01EFD60495F48FFF784FD4FF000084F
:10B6E000DFF890A1DFF86C913B6838461B699847FA
:10B6F0000546002875D03B6880221B6A06A938469B
:10B700009847054603F0EAF9036855219B68984776
:10B7100003F0E4F95FFA88F102F058FF03F0DEF974
:10B72000C8F30F2102F052FF03F0D8F9036820217B
:10B730009B689847322000F0ABFEFFF76FFD33683F
:10B74000012B7FF724AF9A1E54F82220142A7FF48D
:10B750001EAF013B54F82330102B7FF418AF03F0D9
:10B76000BDF9036864219B68984703F0B7F9036843
:10B7700000219B68984703F0B1F9A9B202F026FFB7
:10B7800003F0ACF9036846219B68984703F0A6F9DB
:10B7900003682A46DB6806A9984703F09FF9036807
:10B7A00020219B689847322000F072FEFFF736FD9B
:10B7B0003368012B09DD9A1E54F82220142A04D183
:10B7C000013B54F82330102B03D0FFF747FD2349EA
:10B7D000E0E6424651464846FFF704FD08F14008BE
:10B7E00082E71F491B48FFF7FDFC03F077F9036868
:10B7F00051219B68984703F071F9036820219B68E9
:10B800009847322000F044FEFFF708FD3368022B12
:10B8100005D12368142B02D16368102B06D0FFF7E3
:10B820001DFD10490B48FFF7CFFC94E50E49094870
:10B83000FFF7D8FCFFF712FD0C490648FFF7D2FCD2
:10B840000B490448FFF7CEFC012584E5C0F83F0210
:10B85000C7F83F0264AE0710D8F83F02F1F83F0284
:10B8600025F93F023EF93F026EF93F029BF93F0284
:10B87000B9F93F0217F93F0270B51426D0E9005319
:10B88000044606FB0356AE4204D0284602F040FCB4
:10B890001435F8E7206800F0A7FD204670BD70B5AC
:10B8A0000446D0E9005305EB8316AE4205D02B6861
:10B8B00028461B6898474035F7E7206800F094FD5C
:10B8C000204670BD2DE9F043364A8DB036493748E1
:10B8D00001F06CF802F0E4FE4FF4E13102F0CEFE2C
:10B8E000002000F0C9F943F698250446002000F036
:10B8F000C3F9001B61F10001A84271F1000307D2F6
:10B9000002F0CEFE02F0C1FE10B900F09BFCEDE7A4
:10B9100002F0C6FE02F0B9FE4FF47A7000F0B8FDF6
:10B9200023492448FFF75EFC234F01A8DFF88C80F1
:10B93000DFF88C9002F0A1FDDDE9014504EB8515EF
:10B94000AC4229D0204600F0EAFD18B3394608A8D9
:10B9500002F029FC214604A800F0D8FD04A908A89B
:10B9600002F0A8FC414602F0B1FC0646204600F079
:10B97000D4FD0146304602F0BEFC494602F0A6FC6A
:10B9800001680C48FFF72EFC04A802F0C1FB08A8D0
:10B9900002F0BEFB4034D3E701A8FFF780FF0DB0F3
:10B9A000BDE8F083EFF93F02F5B63F0229CF3F0231
:10B9B000FAF93F0264AE071001FA3F0214FA3F029F
:10B9C000D1F83F022DE9F043204D89B02B7883B3A5
:10B9D0001F492048FFF706FC01A802F04EFDDDE9F3
:10B9E00001369946DFF8788003EB86164E454F46C0
:10B9F00022D0494604A800F089FD414604A802F07F
:10BA000084FC10B1484600F08AFD044604A802F008
:10BA10007FFB09F14009002CE8D00F490D48FFF7E2
:10BA2000E1FB3846FFF72EFC002301A82B70FFF73F
:10BA300036FF09B0BDE8F08301A8FFF730FF0749E2
:10BA40000448FFF7DDFB00232B70F2E748AE071038
:10BA500017FA3F0264AE071039FA3F0256FA3F0266
:10BA60002FFA3F028842F8B504460D46164616D90D
:10BA7000904215D2A2F11406751AA1F114072C44B4
:10BA8000B7421CD02CB13146204602F0BEFB337CBD
:10BA90002374304602F03CFB143E143CF0E70ED019
:10BAA000B5420CD02CB12946204602F0AEFB2B7CCF
:10BAB0002374284602F02CFB14351434F0E7F8BD4B
:10BAC00000232DE9F041C0E9003383604F6804464C
:10BAD0009F420E4624DD4FF0140808FB07F000F0EB
:10BAE00075FC0546E0B1D4E9001208FB0212FFF72D
:10BAF000B9FF206800F078FC2560A760D6E90073E4
:10BB000008FB0378B84509D03946284602F097FB70
:10BB10003B7C143505F8043C1437F3E77368636025
:10BB20002046BDE8F0810000002370B58CB0CDE95F
:10BB30000033029302F0B4FD1A4C054626466946CE
:10BB400003A8FFF7BDFF03A906A8FFF7B9FF164B2F
:10BB500006A946F8043B09A8FFF7B2FF09AA1E216F
:10BB6000304601F0B1FE09A8FFF786FE06A8FFF7F0
:10BB700083FE0E4B03A823602562FFF77DFE0C4B6E
:10BB8000236002F08DFD4FF4165102F077FD01F0B5
:10BB90007FFB214601F070FD6846FFF76DFE0CB09B
:10BBA00070BD00BFE0AD071084FA3F0218FC3F02F1
:10BBB0009CFA3F0209B504480068044B03441B6823
:10BBC0005B6C029309BD000068AD071030000000F7
:10BBD00009B504480068044B03441B689B6C02933E
:10BBE00009BD000068AD07103000000009B5044829
:10BBF0000068044B03441B68DB6C029309BD000022
:10BC000068AD07103000000009B504480068044B17
:10BC100003441B685B6D029309BD000068AD07100B
:10BC20003000000009B504480068044B03441B6859
:10BC30005B68029309BD000068AD071000000000BA
:10BC400009B504480068044B03441B68DB68029391
:10BC500009BD000068AD07100000000009B50448E8
:10BC60000068044B03441B685B69029309BD000034
:10BC700068AD07100000000009B504480068044BD7
:10BC800003441B68DB6D029309BD000068AD07101B
:10BC90000000000009B504480068044B03441B6819
:10BCA0009B68029309BD000068AD071014000000F6
:10BCB00009B504480068044B03441B68DB68029321
:10BCC00009BD000068AD07101400000009B5044864
:10BCD0000068044B03441B681B69029309BD000004
:10BCE00068AD07101400000009B504480068044B53
:10BCF00003441B681B6A029309BD000068AD07106E
:10BD00001000000009B504480068044B03441B6898
:10BD10005B6A029309BD000068AD071010000000C7
:10BD200009B504480068044B03441B689B6A0293EE
:10BD300009BD000068AD07101000000009B50448F7
:10BD40000068044B03441B68DB6A029309BD0000D2
:10BD500068AD07101000000009B504480068044BE6
:10BD600003441B681B6B029309BD000068AD0710FC
:10BD70001000000009B504480068044B03441B6828
:10BD80005B6B029309BD000068AD07101000000056
:10BD900009B504480068044B03441B681B6C0293FC
:10BDA00009BD000068AD07101000000009B5044887
:10BDB0000068044B03441B685B69029309BD0000E3
:10BDC00068AD07104C00000009B504480068044B3A
:10BDD00003441B689B68029309BD000068AD07100F
:10BDE0005000000009B504480068044B03441B6878
:10BDF000DB68029309BD000068AD07105000000029
:10BE000009B504480068044B03441B68DB690293CE
:10BE100009BD000068AD07101800000009B504480E
:10BE20000068044B03441B681B6A029309BD0000B1
:10BE300068AD07101800000009B504480068044BFD
:10BE400003441B689B68029309BD000068AD07109E
:10BE50002400000009B504480068044B03441B6833
:10BE6000DB68029309BD000068AD071024000000E4
:10BE700009B504480068044B03441B681B6902931E
:10BE800009BD000068AD07102400000009B5044892
:10BE90000068044B03441B685B69029309BD000002
:10BEA00068AD07102400000009B504480068044B81
:10BEB00003441B689B69029309BD000068AD07102D
:10BEC0002400000009B504480068044B03441B68C3
:10BED000DB69029309BD000068AD07102400000073
:10BEE00009B504480068044B03441B681B6A0293AD
:10BEF00009BD000068AD07102400000009B5044822
:10BF00000068044B03441B689B6A029309BD000050
:10BF100068AD07102400000009B504480068044B10
:10BF200003441B68DB6A029309BD000068AD07107B
:10BF30002400000009B504480068044B03441B6852
:10BF40001B6B029309BD000068AD071024000000C0
:10BF500009B504480068044B03441B681B6C02933A
:10BF600009BD000068AD07102400000009B50448B1
:10BF70000068044B03441B681B68029309BD000062
:10BF800068AD07103400000009B504480068044B90
:10BF900003441B685B68029309BD000068AD07108D
:10BFA0003400000009B504480068044B03441B68D2
:10BFB0009B68029309BD000068AD071034000000C3
:10BFC00009B504480068044B03441B681B690293CD
:10BFD00009BD000068AD07103400000009B5044831
:10BFE0000068044B03441B685B69029309BD0000B1
:10BFF00068AD07103400000009B504480068044B20
:10C0000003441B689B69029309BD000068AD0710DB
:10C010003400000009B504480068044B03441B6861
:10C02000DB69029309BD000068AD07103400000011
:10C0300009B504480068044B03441B681B6A02935B
:10C0400009BD000068AD07103400000009B50448C0
:10C050000068044B03441B689B6A029309BD0000FF
:10C0600068AD07103400000009B504480068044BAF
:10C0700003441B685B6B029309BD000068AD0710A9
:10C080004800000009B504480068044B03441B68DD
:10C090005B6D029309BD000068AD07104800000009
:10C0A00009B504480068044B03441B68DB6E029327
:10C0B00009BD000068AD07104800000009B504483C
:10C0C0000068044B03441B681B6F029309BD00000A
:10C0D00068AD07104800000009B504480068044B2B
:10C0E00003441B685B68029309BD000068AD07103C
:10C0F0000800000009B504480068044B03441B68AD
:10C100005B69029309BD000068AD071008000000DC
:10C1100009B504480068044B03441B68D3F8883011
:10C12000029309BD68AD07100800000009B5044876
:10C130000068044B03441B68D3F89430029309BD94
:10C1400068AD07100800000009B504480068044BFA
:10C1500003441B685B68029309BD000068AD0710CB
:10C160007400000009B504480068044B03441B68D0
:10C170009B68029309BD000068AD071074000000C1
:10C1800009B504480068044B03441B681B6902930B
:10C1900009BD000068AD07107400000009B504482F
:10C1A0000068044B03441B685B69029309BD0000EF
:10C1B00068AD07107400000009B504480068044B1E
:10C1C00003441B689B69029309BD000068AD07101A
:10C1D0007400000009B504480068044B03441B6860
:10C1E000DB69029309BD000068AD07107400000010
:10C1F00009B504480068044B03441B681B6A02939A
:10C2000009BD000068AD07107400000009B50448BE
:10C210000068044B03441B689B6A029309BD00003D
:10C2200068AD07107400000009B504480068044BAD
:10C2300003441B685B68029309BD000068AD0710EA
:10C240002C00000009B504480068044B03441B6837
:10C250009B68029309BD000068AD07102C00000028
:10C2600009B504480068044B03441B68DB6B029368
:10C2700009BD000068AD07102C00000009B5044896
:10C280000068044B03441B685B68029309BD00000F
:10C2900068AD07102800000009B504480068044B89
:10C2A00003441B689B68029309BD000068AD07103A
:10C2B0002800000009B504480068044B03441B68CB
:10C2C000DB68029309BD000068AD0710280000007C
:10C2D00009B504480068044B03441B681B690293BA
:10C2E00009BD000068AD07102800000009B504482A
:10C2F0000068044B03441B685B69029309BD00009E
:10C3000068AD07102800000009B504480068044B18
:10C3100003441B689B69029309BD000068AD0710C8
:10C320002800000009B504480068044B03441B685A
:10C33000DB69029309BD000068AD0710280000000A
:10C3400009B504480068044B03441B681B6A029348
:10C3500009BD000068AD07102800000009B50448B9
:10C360000068044B03441B681B6B029309BD00006B
:10C3700068AD07102800000009B504480068044BA8
:10C3800003441B685B6B029309BD000068AD071096
:10C390002800000009B504480068044B03441B68EA
:10C3A0001B6C029309BD000068AD07102800000057
:10C3B00009B504480068044B03441B685B6C029396
:10C3C00009BD000068AD07102800000009B5044849
:10C3D0000068044B03441B681B68029309BD0000FE
:10C3E00068AD07100400000009B504480068044B5C
:10C3F00003441B685B68029309BD000068AD071029
:10C400000400000009B504480068044B03441B689D
:10C410009B68029309BD000068AD0710040000008E
:10C4200009B504480068044B03441B685B6A029327
:10C4300009BD000068AD07100400000009B50448FC
:10C440000068044B03441B68DB6B029309BD0000CA
:10C4500068AD07100400000009B504480068044BEB
:10C4600003441B681B6C029309BD000068AD0710F4
:10C470000400000009B504480068044B03441B682D
:10C480005B6C029309BD000068AD0710040000005A
:10C490000021FFF72FBE07B5036801221B6A0DF1CB
:10C4A00007019847012808BF9DF8070003B05DF811
:10C4B00004FB07B5036801225B6A0DF10701984789
:10C4C000012808BF9DF8070003B05DF804FB704722
:10C4D0000020704770470000064B10B5994200F1EC
:10C4E0000C0405D0084602F08DFB002808BF00248C
:10C4F000204610BDC8FA3F0210B504461021FEF7D1
:10C500000CFE204610BD1021FEF707BE10B50446F4
:10C51000103101F094FE204610BDC06A7047836957
:10C5200043B190F92030013304D0806A003818BF3D
:10C53000012070470020704710B50446006810B114
:10C540000021FFF763FE204610BD0C30FFF7F4BF5B
:10C5500010B50446006808B1FEF7DDFD204610BDA9
:10C56000F7B5002704460D46C0E90071C9B1084679
:10C57000FEF7CFFD064638B16B1E0133ACBF2A462D
:10C580003A46394602F085FC002320680193266074
:10C5900008B1FEF7C0FD01A8FFF7DAFF236803B971
:10C5A0006360204603B0F0BD38B504460D464968C7
:10C5B000FFF7D6FF62682AB16B681BB12968206853
:10C5C00002F040FC204638BDFF2373B515460446F3
:10C5D0000E4600F8043B0021FFF7C2FF95B97368CF
:10C5E000202B0FD131466846FFF7DEFF009A6368C3
:10C5F0006260019A0093A3686846A2600193FFF706
:10C60000A7FF2570204602B070BD0000F0B54FF4C2
:10C610007A7300260746C0E90163314B044647F8A8
:10C62000103B89B00D4638462E4901F0BCFDFF2372
:10C63000314684F8203004F12400FFF791FFC4E96B
:10C640000B66C4E90E6684F83460002D45D0296875
:10C6500049B104A801F0A7FD384604A901F0FAFD8C
:10C6600004A801F055FD6E68002E31D02A89002AF9
:10C670002ED0114602A895F90A700192FFF770FFBB
:10C68000029818B13146019A02F0DCFB3A4602A941
:10C6900004A8FFF799FF02A8FFF75AFF9DF8103092
:10C6A000002184F8203002A8FFF75AFF029B059969
:10C6B0000593039B069A0693636A02A80293A36AF2
:10C6C0006162A2620393FFF743FF05A8FFF740FFF3
:10C6D000EB6803B1E3622B692363204609B0F0BD28
:10C6E000D8FA3F02DFFB3F0238B5046805467CB14B
:10C6F0006368013B63605BB9236820469B68984789
:10C70000A368013BA3601BB923682046DB689847F8
:10C71000284638BD10B50446074B40F83C3BFFF7B0
:10C72000E3FF04F12400FFF713FF04F1100001F010
:10C73000EFFC204610BD00BFD8FA3F0210B50446FA
:10C74000FFF7E8FF20464021FEF7E7FC204610BD3A
:10C7500070B58AB004460E46FFF7E1FE00284ED0C1
:10C76000A36B13B11B68002B3CD194F83450002DFF
:10C7700048D1E36A002B48D02369CDE907550593DA
:10C78000636A2A460693A36A6846ADF81C3094F89B
:10C79000203005A9009509958DF81E30FFF7F0FCB3
:10C7A00000282ADBE6B110200195FEF7B0FC30B17D
:10C7B0000123C0E90133164B0360009BC3600023D3
:10C7C000CDE90133A36B039300F10C03A363E36B87
:10C7D000E06304A80493FFF787FF02A8FFF784FF34
:10C7E000A16B09B1002008E00098FFF70FFD002EB3
:10C7F000F8D0A36B002BF5D106480AB070BD6FF0DE
:10C80000D100FAE76FF0C800F7E76FF0BE00F4E779
:10C81000B4FA3F02FCFEFFFF70B50C46012106464C
:10C820001546FFF795FF00280BDB4CB145B1B06B07
:10C830002A462146BDE8704000230068FFF7CABCC5
:10C84000004870BDF2FEFFFF38B50C4601210546D9
:10C85000FFF77EFF002807DBAB6B2146186800223C
:10C86000BDE83840FFF7C4BC38BD07B5036842686F
:10C87000009300230360436001A80192FFF734FF97
:10C8800003B05DF804FB38B501210546FFF760FFF2
:10C89000044628B9AB6B01461868FFF77FFC0446D5
:10C8A00014F1C90F09D195F8343033B905F13800C6
:10C8B000FFF7DBFF012385F8343024EAE47038BD4C
:10C8C0002DE9F0418846012107461546FFF740FF54
:10C8D000041E1BDBB8F1000F20D0FDB10026B86BA1
:10C8E00000232A46006808EB0601FFF765FC041EDA
:10C8F0000FDC14F1C90F06D107F13800FFF7B5FFBF
:10C90000012387F83430002E18BF34462046BDE896
:10C91000F0812D1B2644E2D13446F7E7004CF5E7C1
:10C92000F2FEFFFF10B543680446013B436063B964
:10C9300003689B689847A368013BA3602BB92368F1
:10C940002046BDE81040DB68184710BD70B50446AE
:10C95000D0E9005305EB0316AE4204D0284601F09F
:10C96000D7FB1035F8E72068FFF73EFD204670BD85
:10C97000002302480360FFF71DB900BF4CAE07104B
:10C9800010B588B00446684601F00DFC694604A85D
:10C9900001F055FC04A8A047044604A801F0B8FB28
:10C9A000684601F0B5FB204608B010BD1FB5002356
:10C9B0001024CDE90201019269461A461846ADF8E5
:10C9C0000230ADF80040FFF72FFC04B010BD00228C
:10C9D00040681146FFF7B4BC002240681146FFF7DB
:10C9E000CBBC00224068FFF7B9BC0022406881F050
:10C9F0000101FFF797BC002340681A461946FFF76C
:10CA000083BC002340681A461946FFF76FBC00221A
:10CA100040681146FFF75CBC002240681146FFF7F2
:10CA20003BBC002202214068FFF744BC0023406861
:10CA30001A46FFF723BC00000322024B5A60024A49
:10CA40001A60704750AE07100CFB3F027047F8B5F4
:10CA5000064615460C468F18BC4206D03368304651
:10CA60009B6814F8011B9847F6E72846F8BD00229A
:10CA7000007CFFF739B90021007CFFF743B90021A2
:10CA8000007CFFF74DB90021007CFFF757B900216A
:10CA9000007CFFF761B910B504461421FEF73DFB99
:10CAA000204610BD38B5044615464FF47A7300226F
:10CAB000C4E90123094B0846217423602946FFF786
:10CAC00067F9BF3008D16B69DB0705D56868FFF7E8
:10CAD0008BFCE868FFF788FC204638BD48FB3F0226
:10CAE000704710B504461821FEF717FB204610BD0D
:10CAF000F0B5037D0E46062B4FF000048DB000F11B
:10CB0000040712D000F1080515F8011D0A2230466D
:10CB100001F0CFFAAF42044419D0002CF4D02E21FA
:10CB2000304601F0C3FA0444EEE72F236A46394643
:10CB30000A208DF80040FFF739F96846FEF7C2FA7F
:10CB40003368024669463046DB689847044620460B
:10CB50000DB0F0BD10B50446044B1122002140F881
:10CB6000043B02F096F9204610BD00BF70FB3F0267
:10CB70000346074A10B543F8042B01F1100251F89F
:10CB8000044B914243F8044BF9D10A781A7010BD56
:10CB900070FB3F0210B59DF8084044EA032343EAC6
:10CBA0000242042342EA01614160037510BD0000A6
:10CBB00007B5064B0360CB7800938B784A780978E9
:10CBC000FFF7E8FF03B05DF804FB00BF70FB3F0216
:10CBD000012200F1100313F8101C1846012908D196
:10CBE00053F8041C02EB4102013A03F11003F2D1A5
:10CBF0007047022904BF53F8041C5218F4E70EB41E
:10CC0000F0B588B0102100AF07F1340555F8042BBA
:10CC100004462B4678187A60FD60FFF701FC0F2868
:10CC20007A681AD900F1080323F007036E46ADEBCA
:10CC3000030D411C2B466846FD60FFF7F1FB021E09
:10CC400004DD2368694620469B689847B54620372F
:10CC5000BD46BDE8F04003B070470028F7D0236818
:10CC600002469B68204607F110019847EFE738B568
:10CC70000B68044603604D6843689D4208D015B1B7
:10CC80006B6801336B60606808B1FFF74BFE65604D
:10CC900038BD07B503688DF8071001229B680DF1B8
:10CCA0000701984703B05DF804FB0B4611460022CC
:10CCB00010B50446C0E9002283600BB9204610BDC0
:10CCC000FFF7D5FFFAE78368EBB11A78032A1AD881
:10CCD000DFE802F00417021B0520704702685B685A
:10CCE0005268D05C2D2812D0A0F13003092B0ED948
:10CCF00074280ED066280CD0A0F16E03584258411B
:10CD000070470620704700207047042070470320BA
:10CD100070470220704710B50446FFF7D4FF022881
:10CD20000ED0C31EDBB2012B14D82268A368506852
:10CD30005B680A22BDE810400021184402F0AAB93D
:10CD40002268A36852685B68D05CA0F17403584203
:10CD5000584110BD0020FCE738B500230446C0E967
:10CD600000330E48C4E90203A9B10B78032B06D0A7
:10CD70008BB9136858684B68C35C6E2B07D0136877
:10CD80004D6858688B6828445B1BA060E3601146BF
:10CD90002046FFF76CFF204638BD00BFDFFB3F0297
:10CDA00038B500250B4604461146C0E90055C0E9D8
:10CDB0000255C0E904554BB11A78012A06D103F196
:10CDC0001002DB6882604361FFF751FF204638BDE7
:10CDD00010B54369044663B18068013BE0601030E0
:10CDE000A0602061636113B1FFF7F2FEA060012033
:10CDF00000E0184610BD10B57D210446FFF749FF3D
:10CE000001232046237110BD08B50379012B02D000
:10CE1000022B04D008BD2C21FFF73BFFFAE73A2193
:10CE2000FAE710B50446FFF7EFFF20467B21FFF736
:10CE300030FF00232046237110BD000013B50446C7
:10CE40000191FFF7E1FF23682046DB68019A03495F
:10CE5000984701232046237102B010BD7CFB3F029E
:10CE600013B504460191FFF7CFFF23682046DB6826
:10CE7000019A0349984701232046237102B010BD4F
:10CE80007FFB3F022DE9F0470D46904622210446E4
:10CE90002F46FFF7FEFEDFF8A490A8444745BA46A8
:10CEA0003DD017F8016B222E06D05C2E04D0304600
:10CEB00001F0C0FF0028F1D12368294620469B6875
:10CEC000AAEB050298475C212046FFF7E2FE0D2EF3
:10CED0000AD8072E1CD9A6F10803052B18D8DFE8BD
:10CEE00003F00D0F11171315222E01D05C2E0FD158
:10CEF00031462046FFF7CDFE3D46CFE76221F8E7F9
:10CF00007421F6E76E21F4E76621F2E77221F0E77B
:10CF10002368324649462046DB689847ECE7BD4225
:10CF200005D02368294620469B687A1B9847222112
:10CF30002046FFF7AEFEBDE8F08700BF82FB3F0250
:10CF400013B50446CDE90021FFF75EFFDDE90021BE
:10CF50002046FFF797FF02232046237102B010BD41
:10CF600013B50446CDE90021FFF74EFFDDE90021AE
:10CF70002046FFF787FF01232046237102B010BD32
:10CF800080680368DB6818477047084611B10B6872
:10CF90005B6818477047704770477047704738B5EF
:10CFA00004460D4600682E2101F0B7FF2368C31A1E
:10CFB0002B6023B1037803B1013023682060184649
:10CFC00038BD10B504460C21FEF7A7F8204610BD69
:10CFD00010B504460421FEF7A0F8204610BD10B598
:10CFE00004460421FEF799F8204610BDFEF7FEBD69
:10CFF00008B5FEF75DF8B0FA80F0400908BD70474B
:10D0000010B50C4601F04CFB844205D101F048FB01
:10D01000BDE8104001F036BB01F060FD844205D14F
:10D0200001F05CFDBDE8104001F0CDBA2CB12368E1
:10D030002046BDE810405B68184710BD0B680360D0
:10D040004B68436013B15A6801325A60704713B598
:10D05000044608460191FEF735F80246204601993C
:10D0600002B0BDE81040FFF77BBF13B50446084689
:10D070000191FEF727F80246204623680199DB68F4
:10D0800002B0BDE81040184707B503688DF80710D7
:10D090000122DB680DF10701984703B05DF804FB3E
:10D0A0000A6810B502604A6842600022C0E90222A4
:10D0B00002618C688A608460CC68CA60C4600C6954
:10D0C0000A61046110BD00002DE9F74F4FF0140A0A
:10D0D000D0E90084174645460AFB04F40093174B39
:10D0E000A4105C43002C21DD66100AFB06F005EB62
:10D0F0000009B9F804B03A465F4528BF5A46285897
:10D10000019101F01CFF00284FF0010301990BD1A0
:10D110005F4503D1009A13703446E3E7FCD9A61BA0
:10D1200009F11405013EF7E7F9DBF5E7A5EB080582
:10D130000248AD10684303B0BDE8F08FCDCCCCCC35
:10D140007FB50369057E019103B3F9B1002600F1B3
:10D150000C04039603A901A8FFF721FF0146A8B11B
:10D160000DF10B032046039A8DF80B60FFF7ACFF1F
:10D170009DF80B3053B12368142404FB0034B4F938
:10D1800006300834002BA8BFDDB2E3E7284604B020
:10D1900070BD0EB4F0B58CB000AF07F1440555F882
:10D1A000042B04462B46202107F110007A60FD6015
:10D1B000FFF736F91F287A681AD900F1080323F01F
:10D1C00007036E46ADEB030D411C2B466846FD6020
:10D1D000FFF726F9021E04DD236869462046DB6856
:10D1E0009847B5463037BD46BDE8F04003B07047BC
:10D1F0000028F7D023680246DB68204607F11001BB
:10D200009847EFE710B5084CD4E88F3FDB0709D407
:10D210002046FDF791FF28B12046FDF792FF034815
:10D2200001F002FE024810BD5CAE07103FD53F0280
:10D230006CAD071010B5084CD4E88F3FDB0709D45C
:10D240002046FDF779FF28B12046FDF77AFF034815
:10D2500001F0EAFD024810BD60AE0710A7D53F02FD
:10D2600070AD071038B500250446C0E90055C0E987
:10D2700004558560856140F8245FFEF79BFCFFF74D
:10D28000C1FFE061FFF7D6FF25732062204638BD5D
:10D2900010B50A4CD4E88F3FDB070CD42046FDF7CD
:10D2A0004BFF40B10648FFF7DDFF2046FDF749FF81
:10D2B000044801F0B9FD024810BD00BF58AE071088
:10D2C00068AE071089DD3F020023024A0249034885
:10D2D000FEF7F4BE71DB3F02FDDA3F027DDA3F026A
:10D2E00000231A4619461846FEF7E8BE37B504462D
:10D2F0008D686846FFF7A2FE6A4629462046FFF77A
:10D300004FFD01A8FFF7F0F9204603B030BD37B557
:10D310000446CD686846FFF791FE6A4629462046D6
:10D32000FFF71AFD01A8FFF7DFF9204603B030BD73
:10D3300037B504460D696846FFF780FE6A46294600
:10D340002046FFF7B2FC01A8FFF7CEF9204603B054
:10D3500030BD000070B58AB00D46014604A8FFF745
:10D36000C5FF144E04A8FFF733FDE8B1684604A9D1
:10D37000FFF7CDFF31460298FFF73AFE044610B1A1
:10D380002C1E18BF012401A8FFF7AEF9002CE9D02C
:10D39000684604A9FFF7CCFF6846FFF7BCFC28608D
:10D3A00001A8FFF7A1F9DDE705A8FFF79DF90AB08D
:10D3B00070BD00BF88FB3F0237B50C4613492046BD
:10D3C0001546FDF775FE50B901F06AF94FF4165194
:10D3D00001F054F903B0BDE8304001F061B92046D6
:10D3E0000B49FDF765FE78B94FF4165301A928469D
:10D3F0000193FFF7AFFF01F071FB019901F0E0F835
:10D4000001F06CFB03B030BD0020FBE78DFB3F0259
:10D4100094FB3F0270B51426D0E90053044606FB86
:10D420000356AE4205D005F10800FFF7F3FF1435AF
:10D43000F7E72068FEF7D8FF204670BD10B5044618
:10D440000C30FFF7E7FF2046FFF780FA204610BDBB
:10D4500010B50446034B40F8043BFFF7EFFF2046AE
:10D4600010BD00BF84FA3F0210B50446FFF7F0FF7D
:10D4700020462421FDF751FE204610BD10B504467C
:10D48000024B0360FFF7E4FF204610BD30FC3F0273
:10D4900010B50446FFF7F2FF20462421FDF73DFEBC
:10D4A000204610BD0022C0E90022826010B50C6841
:10D4B0000A6004604C684A6044608C688A608460DA
:10D4C00010BD10B5044603681868FEF79DFB2046A2
:10D4D00010BD00002DE9F04F87B003931C4B804630
:10D4E0005B688946C3F3080316466BB9FFF7D0FEA5
:10D4F000044600F12403406A0593FFF777FD237B80
:10D500002BB105A8FFF7DDFF07B0BDE8F08F0123C1
:10D510005FFA89F92373D4E9005305EB830AAA451E
:10D5200012D055F8047B3146381DFFF709FE8145BE
:10D53000F5D3039A3B680092D3F808B04A463346C5
:10D5400041463846D847EAE700232373D9E700BFAE
:10D5500000ED00E02DE9F74F9B461A4B80465B68D3
:10D560008946C3F3080316466BB9FFF791FE0446DC
:10D5700000F12403406A0193FFF738FD237B2BB1B0
:10D5800001A8FFF79EFF03B0BDE8F08F0123F6B2BC
:10D590002373D4E9005305EB830A55450ED055F8A3
:10D5A000047B5946381DFFF7CBFD8642F5D33B6817
:10D5B0004A4641463846DB689847EEE70023237326
:10D5C000DEE700BF00ED00E02DE9F341164B054614
:10D5D0005B680F46C3F308031BBBFFF759FE044605
:10D5E00000F12403406A0193FFF700FDD4E90063D2
:10D5F000462406EB8308B04509D101A8FFF761FF77
:10D60000A542B4BF0020012002B0BDE8F08156F869
:10D61000040B39460430FFF793FD8442A8BF04464B
:10D62000E9E70020F0E700BF00ED00E0F8B5D0E941
:10D6300001539D4204460E460DDB6F1C002F00680F
:10D6400004DDB900FEF7DEFE18B9F8BDFEF7CCFE2A
:10D6500000202060A7602768626807EB85019200C0
:10D66000A2EB8502081D01F0FAFB47F8256063680C
:10D67000012001336360E8E737B5044600F1240375
:10D68000406A01930D46FFF7B1FCD4E9003203EB89
:10D690008202934219460AD009680433A942F8D19C
:10D6A00001A8FFF70EFF0025284603B030BD29462C
:10D6B0002046FFF7BBFF05460028F1D06368012B29
:10D6C00001D1FFF701FE01A8FFF7FBFEECE70B46D7
:10D6D00070B50446D0E9000200EB820282420FD00E
:10D6E00001461D6851F8046BAE4207D1521A01F091
:10D6F000B6FB01206368013B636070BD0846EDE73F
:10D700000020FAE71FB5044600F12403406A0191A6
:10D710000393FFF76BFC204601A9FFF7D8FF18B170
:10D7200063680BB9FFF7DCFD03A8FFF7CAFE04B07E
:10D7300010BD182370B50446D0E9045603FB065605
:10D74000AE4215D0204605F11001FFF7C0FF636817
:10D750000BB9FFF7C5FDE06929690368DB689847E5
:10D76000696919B1206A0368DB6898471835E7E7EB
:10D770001826D4E9045306FB0356AE4204D02846CB
:10D7800000F0C6FC1835F8E70023636170BD73B57F
:10D790000446FFF7A5FD04F12403606A0193FFF737
:10D7A00025FC2046FFF7C5FF01A8FFF78AFE606A47
:10D7B00008B1FEF70DFAD4E90453182606FB035608
:10D7C000AE4204D0284600F0A3FC1835F8E72069E3
:10D7D000FEF70AFE2068FEF707FE204602B070BD85
:10D7E0000148FFF7D4BF00BF68AE07108842F8B504
:10D7F00004460D46164615D9904214D2A2F11406DD
:10D80000751AA1F114072C44B7421AD01CB1314645
:10D810002046FFF745FC06F10800FFF7FBFD143E2C
:10D82000143CF1E70DD0B5420BD01CB1294620467F
:10D83000FFF736FC05F10800FFF7ECFD1435143452
:10D84000F1E7F8BD8842F8B504460D46164614D9EE
:10D85000904213D2A2F11006751AA1F110072C44C0
:10D86000B74218D01CB13146204600F0CEFC3046FD
:10D8700000F04EFC103E103CF2E70CD0B5420AD04E
:10D880001CB12946204600F0C0FC284600F040FCB0
:10D8900010351034F2E7F8BD70B50E1E054611DDE7
:10D8A0003001FEF793FD044658B1D5E9001201EBB3
:10D8B0000212FFF7C7FF2868FEF796FD01202C60D3
:10D8C000AE6070BD0024F6E72DE9F04F90460023CE
:10D8D000462295B00391D8F8041004469942C0E955
:10D8E0000033C0E90233C0E90433CDE908330276DE
:10D8F0000A9323DCD8E90057142303FB0757AF42F0
:10D900003BD029460BA800F080FC0BA90FA8099E6C
:10D9100000F07BFCDDE9091399421BDA089B099AA8
:10D9200003EB0616314603EB021206F11000FFF777
:10D9300089FFEEB9099B0133099311E008A8FFF7AD
:10D94000ABFF0028D6D108A8FFF700F8204615B095
:10D95000BDE8F08F013108A8FFF79EFF0028DDD158
:10D960000FA800F0D5FB0BA800F0D2FB1435C6E7DA
:10D9700030460FA900F049FCDCE700264FF01409FF
:10D98000CDE90B660D96DDE908239E427CDA330172
:10D99000D35806930BB90136F5E70023079309FB2B
:10D9A00006F30BAD029307A906A8FFF7F8FA824623
:10D9B0000028F0D04FF0000301468DF817302846BC
:10D9C000079A0DF11703FFF77FFB9DF81770019081
:10D9D000002F4AD1BDF81C30CDE91177ADF84030A9
:10D9E0004FF6FF73CDF83CA0ADF842301397D5E960
:10D9F0000132934217DB03F1010ABAF1000F30DD67
:10DA000009FB0AF0FEF7E2FC834660B3D5E9001299
:10DA100009FB0212FFF7EAFE2868FEF7E5FCC5F8ED
:10DA200000B0C5F808A02B68019A09FB023A6A68A1
:10DA3000514609FB02320AF11400FFF7D7FEBAF192
:10DA4000000F03D050460FA9FFF72AFB6B68013384
:10DA50006B6011A8FFF7DEFC3FB10BA8FFF7DAFC03
:10DA600071E7BB46D8E70127F3E7019B2D6809FB67
:10DA70000355069B1B782BB9D8F80030029A134443
:10DA80001B7CEB8008358EE721682260626863604A
:10DA9000A36809920A9A0A93E368A2600B9A0B930F
:10DAA0002369E2600C9A0C93636922610D9A0D93CD
:10DAB000039B089162612376CFE70000F0B504462E
:10DAC0002646174687B00D4668461946FDF7F8FF0B
:10DAD0000B4B694646F8043B03A8FDF7F1FF3946B6
:10DAE00003AA3046FFF7F0FE03A8FDF7C5FE68461F
:10DAF000FDF7C2FE2046034B2562236007B0F0BD50
:10DB000084FA3F0218FC3F02F0B50F4685B0384654
:10DB10001C4916461D460A9CFDF7CAFAC0B9A4B1B5
:10DB2000294601A8FFF7BEFC2420174901F066F83A
:10DB3000054630B101AB32462146FFF7BFFF134B1C
:10DB40002B6001A8FDF798FE2C46204605B0F0BDDD
:10DB500038460F49FDF7ACFA90B9002CF5D02946AC
:10DB600001A8FFF79FFC2420074901F047F805466C
:10DB70000028E6D03246214601ABFFF79FFFE0E7E1
:10DB80000024E2E79CFB3F0264FD3F0230FC3F02C1
:10DB9000A0FB3F02014B024A1A60704764AE0710B7
:10DBA000B1FB3F022DE9F047089DD0F820900446D4
:10DBB0000E461746984600F073FD81454DD02B79EF
:10DBC000190704D520466A695449FFF7E2FAB8F10B
:10DBD000000F0DD05B212046FFF756FA4146204644
:10DBE000FFF743FA236802222046DB684C49984736
:10DBF0002B79DA0724D5D5F808802F21404601F08B
:10DC0000B2F908B100F1010841462046FFF72DFAAC
:10DC10002B799B0708D53A212046FFF735FA204695
:10DC2000EA684049FFF7B5FA2A79236812F0040F31
:10DC300020464FF00202DB6814BF3B493B4998473E
:10DC40002B7958071DD529690B461A4613F8010B85
:10DC500060B1202808D11946F7E7354800F083F96C
:10DC60000028ACD0BDE8F0872828EED12368521AEE
:10DC70002046DB689847236804222046DB682D494C
:10DC8000984700213846FEF70BFA01462046FFF779
:10DC9000ECF9236802222046DB68244998471EB12C
:10DCA00031462046FFF7E1F92B7913F0300F2CD0E5
:10DCB00023682149DB680222204698472B79D90640
:10DCC0000AD52368072220461C49DB68984720466E
:10DCD000AA691B49FFF75DFA2B799A0611D5DB0675
:10DCE00005D5236802222046DB680F499847236840
:10DCF000204614490A22DB6898472046E969FFF765
:10DD0000B4F95D212046FFF7BFF923682046BDE83E
:10DD1000F0470222DB680C49184700BFB5FB3F0201
:10DD2000BCFB3F027CFB3F0214FA3F02C1FB3F02F7
:10DD300090AE0710BFFB3F02C4FB3F02C7FB3F0290
:10DD4000CFFB3F02D2FB3F02DDFB3F022DE9F0415A
:10DD50000446076A0D46164600F0A2FC874207D02B
:10DD6000206A324603682946BDE8F041DB6818475F
:10DD7000034800F0F8F80028F2D0BDE8F08100BFB9
:10DD800090AE07102DE9F04385B0D0F820900546FD
:10DD90000F4690461E460C9C00F082FC814505D142
:10DDA000494800F0E0F8002840F08A804FF0000970
:10DDB0002B6A464A01A8019203938DF80890FFF759
:10DDC00030F849464046FEF76BF98046404901224B
:10DDD00001A8FFF7B5F84146FFF739F93FB13D49D2
:10DDE000012201A8FFF7ACF83946FFF730F93EB140
:10DDF0003949012201A8FFF7A3F83146FFF727F9B7
:10DE00002379DF070ED5A6682F21304601F0ABF845
:10DE100000B1461C3149012201A8FFF791F83146B3
:10DE2000FFF715F923799E0707D52D49022201A88E
:10DE3000FFF786F8E168FFF701F82379580714D552
:10DE4000266933461F4613F8012B2AB1202A01D137
:10DE50001E46F7E7282AF5D10222224901A8FFF73A
:10DE60006FF83146BA1BFFF77BF82379190707D5FE
:10DE70001D49012201A8FFF763F86169FEF7F0FF71
:10DE80002379DA0608D5042218490DEB0200FFF7C2
:10DE900057F8A169FEF7D2FF23799B0607D51449ED
:10DEA000062201A8FFF74CF8E169FFF7D0F801A8B6
:10DEB000FEF7A1FF286A022203680E49DB68984733
:10DEC00005B0BDE8F08300BF90AE071000FC3F0234
:10DED00092FB3F02E0FB3F02C7FE3F02E2FB3F0234
:10DEE000E4FB3F02E7FB3F027EF73F02EAFB3F0213
:10DEF000EFFB3F02DDFB3F02002340681A46FEF7BE
:10DF0000BDB9002202214068FEF7D4B90022406862
:10DF10001146FEF7C1B9002240681146FEF7D8B994
:10DF2000002340681A461946FEF7E0B9002340680E
:10DF30001A461946FEF7E8B900214068FEF72ABAEA
:10DF400000214068FEF734BA0022406881F00101E8
:10DF5000FEF7E8B900224068FEF700BA00224068E8
:10DF60001146FEF709BA002240681146FEF7E8B9EB
:10DF70002DE9F04395B014460D460746FEF7EAFD3D
:10DF800000211C220DA8009100F083FF40232046B1
:10DF90000C9300216B460CAAFDF724FF04460028D1
:10DFA0004BD1024601216868FEF792F902218046B2
:10DFB00022466868FEF78CF921468146009E002EB5
:10DFC0003BD0002939D17368022B03D00A2B11D022
:10DFD000F669F4E7B8F1000FFAD0716906A80431C8
:10DFE0003C1D07ADFEF7E4FD0FCD0FC42B68414685
:10DFF0002370EDE7B9F1000FEAD0102201A874698F
:10E0000000F047FF062301AD8DF8143004F108033A
:10E0100018342A4618685968083303C2A3421546C3
:10E02000F7D101A906A83C1D07ADFEF7A1FD0FCD54
:10E030000FC42B6849462370CAE70098FDF7C4FE59
:10E04000384615B0BDE8F083024B034A1A6000223F
:10E050005A60704790AE071078FC3F02F8B506464C
:10E060000D4600248F18BD420CD0336830469B68A3
:10E0700015F8011B9847031E01DB1C44F3E7002C35
:10E0800008BF1C462046F8BD13B50446084659B1E2
:10E090000191FDF717F80246204623680199DB68D5
:10E0A00002B0BDE81040184702B010BD03689B687D
:10E0B00018470023012A98BF0A2230B58BB08DF88B
:10E0C000243009AC0D46B1FBF2F101FB125303F011
:10E0D000FF03092B94BF30333733DBB2AA4204F875
:10E0E000013DEFD92146FFF7CFFF0BB030BD000057
:10E0F0000022014B9A60704798AE071010B5044695
:10E1000008462170FDF77CFE00232046636010BDA9
:10E1100010B504460068FEF767F9204610BD10B53B
:10E120000446006808B1FEF75FF90023C4E9013333
:10E13000236010BD38B504460D4600680131FEF776
:10E1400061F910B1C4E90005012038BD10B50368BC
:10E15000044623B143688B4201D3012010BD204601
:10E16000FFF7E8FF0028F9D0A368002BF5D122685B
:10E170001370F2E737B50D46114601920446FFF7DA
:10E18000E5FF019A28B92046FFF7C9FF204603B0F2
:10E1900030BD2946A260206800F054FE00212268AC
:10E1A000A368D154F2E7002313B50446C0E9003355
:10E1B0008360037341B108460191FCF783FF019925
:10E1C00002462046FFF7D6FF204602B010BD38B504
:10E1D000054600680C4670B16A688B689A4208D39D
:10E1E000096831B100F0A3FEA368AB600023A3600F
:10E1F00038BDFEF7F9F823682B6063686B60A3688D
:10E20000AB600023C4E90033F1E7002310B50446F6
:10E21000C0E9003383600373FFF7D9FF204610BDC8
:10E22000884210B5044605D00B682BB18A681946A0
:10E23000FFF7A0FF204610BDFFF771FFFAE70023AC
:10E2400010B50446C0E9003383600373FFF7E8FFAD
:10E25000204610BD884210B5044601D0FFF7B7FF35
:10E26000204610BD70B505460E4609B9002070BDA8
:10E270006AB1846814442146FFF768FF0028F5D08E
:10E280002868AB683146184400F051FEAC600120AC
:10E29000EDE713B50A2204460846694600F098FAED
:10E2A0006846FCF70FFF694602462046FFF7DAFF93
:10E2B00002B010BD10B58A6809680446FFF7D2FFA6
:10E2C00010B92046FFF72BFF204610BD13B50446BA
:10E2D00029B92046FFF723FF204602B010BD0846AB
:10E2E0000191FCF7EFFE019902462046FFF7BAFFC5
:10E2F0000028EED0F0E710B50446FFF7CAFF10B9CA
:10E300002046FFF70CFF204610BD08B582683AB9D9
:10E3100021B10878B0FA80F0400900E0012008BD82
:10E32000006809B90078F5E7FCF7C2FEF2E70000E3
:10E3300038B50D4604464B681031436051F8083C2F
:10E34000836051F8043CC360134B40F8103BFFF767
:10E3500076FF95F8203004F1240084F82030A96A73
:10E36000FEF7FEF8A26A2AB1AB6A1BB1696A606A5D
:10E3700000F068FDEB6AE3622B6B236395F83430A1
:10E3800084F83430AB6BA363EB6BE36313B15A686F
:10E3900001325A60204638BDD8FA3F028842F8B5AB
:10E3A00006460C46154615D9904214D2A2F14005F6
:10E3B0006B1AA1F140071E44AF421AD01EB1294684
:10E3C0003046FFF7B5FF2B6828461B689847403D4D
:10E3D000403EF1E70DD0AC420BD01EB12146304695
:10E3E000FFF7A6FF236820461B6898474034403655
:10E3F000F1E7F8BD70B50E1E054611DDB001FDF761
:10E40000E5FF044658B1D5E9001201EB8212FFF78F
:10E41000C5FF2868FDF7E8FF01202C60AE6070BDE5
:10E420000024F6E730B5044691B045686846FFF72A
:10E430007FFFD4E9011399420FDA2368626803EB86
:10E440008515294603EB821205F14000FFF7A6FF70
:10E4500075B963680133636005E020460131FFF759
:10E46000C9FF0028E9D16846FEF754F911B030BD64
:10E4700069462846FFF75CFFEBE770B500241C26D1
:10E4800098B02146C0E9004484603246054601A8A0
:10E4900000F0FFFC214601A8ADF80460FDF754FE32
:10E4A0000446C0B9BDF81C30A34210D9069BBDF884
:10E4B0000C1008A804FB0131FEF7A8F8284608A9AB
:10E4C000FFF7B0FF08A8FEF725F90134EAE70021BD
:10E4D00001A8FDF747FE284618B070BD02220020B3
:10E4E000044B1A60044B054AC3E900009A60FDF72B
:10E4F000F3BD00BFB4AE0710A8AE07100000FFFFC9
:10E50000024B1A68024B1A60704700BF74AD0710C7
:10E51000B8AE071070474174704708B5007CFDF72E
:10E52000EDFC20EAE07008BD08B5007CFDF7A0FC1A
:10E5300020EAE07008BD08B5007CFDF7B5FC40EAB4
:10E54000E07008BD08B5007CFDF7A0FC40EAE07073
:10E5500008BD007CFDF7B6BC37B5457C04462DB13F
:10E56000207C03B0BDE83040FDF774BC007C019115
:10E57000FDF7C4FC00280199F2DC284603B030BD49
:10E5800010B504461421FCF7C8FD204610BD00005C
:10E5900010B54FF47A730446084611460022C4E9C8
:10E5A0000123044B2074236001236374FDF7D0FC26
:10E5B000204610BDD0FC3F020023007CFDF7ACBC20
:10E5C0000022FFF7F9BF007CFDF736BC007CFDF7A9
:10E5D000B1BC007CFDF784BC417470477047704744
:10E5E00008B50021007CFDF707FD40EAE07008BD9A
:10E5F00008B50121007CFDF7FFFC40EAE07008BD92
:10E6000008B5007CFDF7EAFC20EAE07008BD08B51B
:10E61000007CFDF7D5FC20EAE07008BD13B5044688
:10E62000007C0191FDF7DAFC0028019901DC607C97
:10E6300020B1207CFDF7EEFC20EAE07002B010BDB6
:10E64000007CFDF7F5BC10B504461421FCF765FD10
:10E65000204610BD10B54FF47A73044608460021D9
:10E66000C4E90113044B2074236001231146637431
:10E67000FDF77CFC204610BD00FD3F020022007C1F
:10E68000FDF782BC007CFDF78DBC007CFDF7DEBC95
:10E6900010B504461422002100F0FBFB204610BDFB
:10E6A00010B588B003A8FFF7F3FF0C4CD4E88F1F18
:10E6B00011F001010FD120460191FCF73DFD0199B8
:10E6C00048B103AA0648FFF7C5FF2046FCF739FD0D
:10E6D000044800F0A9FB024808B010BDBCAE07100A
:10E6E000C0AE071085EB3F02002240681146FDF7DF
:10E6F000EFBD002240681146FDF722BE00224068AF
:10E700001146FDF739BE00224068FDF727BE002202
:10E71000406881F00101FDF705BE002340681A46FC
:10E720001946FDF7F1BD002340681A461946FDF76A
:10E73000DDBD002240681146FDF7AEBD002202217A
:10E740004068FDF7B7BD002340681A46FDF796BD47
:10E750000422024B5A60024A1A607047D4AE071076
:10E7600030FD3F0210B50446FCF7ACFC013823181D
:10E770002046834206D90278197800F8011B03F875
:10E780000129F6E710BD70B50C46911E22291DD84F
:10E79000254630B9302223449D4210D205F8012B82
:10E7A000FAE7B0FBF2F602FB1600C1B2092894BFEB
:10E7B00030315731C9B2304605F8011BE9E7002373
:10E7C00020462B70FFF7CEFF204670BD0020FCE7EF
:10E7D00008B50123FFF7D7FF08BD0000014B186003
:10E7E000704700BF78AD071008B50F4B43B1FFF776
:10E7F00057FF03681B699847002801DD00E000BF50
:10E800000A4B43B100F06AF903681B699847002876
:10E8100001DD00E000BF064B0BB100F0A5F9054B90
:10E820000BB100F0D7F908BD0000000000000000A7
:10E83000000000000000000008B5FFF7D5FFFDF75D
:10E840000DFA014B186008BDF0AE07100548064AE6
:10E8500008B5121A054900F0F5FA054B054A1A6089
:10E8600008BD00BF00B4071004B40710C0FA5F0869
:10E8700000B407101E1C279A002307B51A466FF034
:10E8800077010093FDF752FC03B05DF804FB000034
:10E8900007B543880A2B08D0502B0BD1094B1B68B6
:10E8A0004BB103B05DF804EB1847FFF7E5FF03B089
:10E8B0005DF804FB00231A466FF077010093FDF723
:10E8C00035FCF4E7E0AE0710002110B51148FDF764
:10E8D000D1FD114B1A68114B9A420CBF0122002244
:10E8E0000F4B1A7001D0FFF7B1FFFDF79BF90446FB
:10E8F00000F0D8FA0B4B13B1204600E000BF002116
:10E900000848FDF7ADFCBDE8104000210648FDF7C2
:10E91000FFBB00BF85ED3F0200B407101E1C279A05
:10E92000DCAE07100000000039EE3F021B2837B5AF
:10E93000044602D9002003B030BDA0F10F03022B22
:10E940000BD9012821D800F075F80021007CFDF7D3
:10E9500011FA80F00100C0B2EDE7114DD5E88F1F2C
:10E9600011F001010BD128460191FCF7E5FB01995B
:10E9700028B10C48FFF7C2FB2846FCF7E2FB094B25
:10E980001878FDF74BFA0028D4D1083C012C05D8A3
:10E9900000F0A4F8007CFDF7A3FADAE70120CAE74B
:10E9A000E4AE0710E8AE07101B2838B504460D4644
:10E9B0000AD8FF2908D0FFF7B9FF28B12946204619
:10E9C000BDE83840FDF766B938BD38B504460D4698
:10E9D000FDF76EF9FF2810D0062804D84D2323FA3E
:10E9E00000F0C30709D42046FFF7A0FF28B129464D
:10E9F0002046BDE83840FDF769B938BD70470000D2
:10EA000038B50A4B044603600123094943612020BD
:10EA100000F0F6F82025606005492846A56000F062
:10EA2000EFF8C4E90305204638BD00BF1800010017
:10EA300064FD3F0230B50E4D87B0D5E88F1F11F051
:10EA4000010411D12846FCF777FB68B16846FFF74F
:10EA5000D7FF6A4621460748FEF724F82846FCF708
:10EA600070FB054800F0E0F9024807B030BD00BF78
:10EA7000F4AE0710F8AE0710A5EF3F027047000094
:10EA800038B5142504462A46002100F002FA2580F4
:10EA90004025074928462581258200F0B1F8044920
:10EAA0006060284600F0ACF8E060204638BD00BF4A
:10EAB00064FD3F027047704710B50446FFF7E0FF62
:10EAC000204610BD10B50446FFF7DAFF204610BD02
:10EAD00010B50446FFF7D4FF204610BD30B50E4DEB
:10EAE00087B0D5E88F1F11F0010411D12846FCF73B
:10EAF00023FB68B101A8FFF7DFFF214601AA074801
:10EB0000FFF746FD2846FCF71CFB054800F08CF992
:10EB1000024807B030BD00BF0CAF071018AF071098
:10EB200025F03F0210B50D4C86B0D4E88F3FDB07CF
:10EB300011D42046FCF700FB68B101A8FFF7C2FF23
:10EB4000012101AA0648FFF723FD2046FCF7F9FA48
:10EB5000044800F069F9024806B010BD10AF071074
:10EB60002CAF07105FF03F0210B5FFF7DBFF074B3C
:10EB7000044653B1FFF72DFD38B1236820461B69C9
:10EB80009847002801DD00E000BF10BD0000000034
:10EB900010B50D4C86B0D4E88F3FDB0711D420466A
:10EBA000FCF7CAFA68B101A8FFF792FF022101AA97
:10EBB0000648FFF7EDFC2046FCF7C3FA044800F0D6
:10EBC00033F9024806B010BD14AF071040AF07106C
:10EBD0005DF03F0210B5FFF7DBFF074B044653B172
:10EBE000FFF7F7FC38B1236820461B6998470028D7
:10EBF00001DD00E000BF10BD00000000FCF787BA97
:10EC0000FCF787BA014900F0F9B800BF80FD3F0268
:10EC10007FB50024102315461268CDE9023403683D
:10EC2000CDE900449E696B46B0479DF8043003F07F
:10EC30000603062B05BF009B012020462B6004B075
:10EC400070BD0098904214BF01200620704700005C
:10EC5000034B10B50446036000F0CDF8204610BD0C
:10EC6000C0FD3F0210B50446FFF7F2FF0821204621
:10EC7000FCF753FA204610BD2DE9F041DDF818806D
:10EC80001F4606461546DDE90834984507D1079921
:10EC900000F0B4F818B165710020BDE8F081394684
:10ECA000304600F0ABF80028F6D00123C4F800800D
:10ECB0002571A371F0E738B515461C4600F09EF8A3
:10ECC00020B108232560E3600623237138BD73B5A6
:10ECD00005460C461E46019200F090F850B9032EEE
:10ECE00008D823682946019A20465B6902B0BDE82E
:10ECF0007040184702B070BD034B10B50446036066
:10ED0000FFF7A6FF204610BD20FE3F0210B50446C7
:10ED1000FFF7F2FF0C212046FCF7FFF9204610BD5B
:10ED2000F7B5089F05460E46144697420AD0A868D4
:10ED3000314602680897156A2246AC4603B0BDE822
:10ED4000F04060471946019300F058F8019B0028F5
:10ED5000EDD0062003B0F0BD2DE9F14F0D46194668
:10ED6000814617469846DDE90A4BDDE90CA600F01E
:10ED700045F890B1002D3460377109DB61198A457F
:10ED80000CBF06210121B171002001B0BDE8F08F58
:10ED90000235F9D10123B371F6E7544506D159463E
:10EDA000484600F02BF808B17771EDE7D9F8080074
:10EDB0003A4629460368CDE90CA6CDE90A4BDC6941
:10EDC0004346A44601B0BDE8F04F60472DE9F0414D
:10EDD00007460C4615461E46FFF76DFF48B9B86852
:10EDE0002A46214603689F693346BC46BDE8F04188
:10EDF0006047BDE8F081704700207047814208B548
:10EE00000ED0406803782A2B0CD049680B782A2B47
:10EE100008BF0131FCF74CF9B0FA80F0400908BD99
:10EE20000120FCE70020FAE7002301461A461846B5
:10EE300000F03AB9024B1844407800F09700704750
:10EE4000C9FE3F020A44431E914200D1704710B5EB
:10EE500011F8014B914203F8014FF9D110BD8842DE
:10EE600010B501EB020402D98442234607D8431EA1
:10EE7000A14208D011F8012B03F8012FF8E7024452
:10EE800001468A4200D110BD13F8014D02F8014D30
:10EE9000F7E702440346934200D1704703F8011B91
:10EEA000F9E7000038B5104B04461D68AB6BB3B9E9
:10EEB0001820FDF78BFA0246A86320B90B4B4221BC
:10EEC0000B48FDF7C9FA0B490B4BC0E900130B4B7C
:10EED000002183600B2383810120C2E90401AB6B15
:10EEE00000221C615A6138BD78AD071059FE3F02FF
:10EEF00070FE3F020E33CDAB34126DE6ECDE050042
:10EF0000C9B2034610F8012B1AB18A42F9D118464A
:10EF10007047002918BF0023F9E710B50446FFF732
:10EF2000EFFF18B92046FCF7CDF8204410BD03468A
:10EF300011F8012B03F8012B002AF9D1704710B505
:10EF40007AB103460139841813F8010B11F8012F27
:10EF5000904201D1A34201D1801A10BD0028F3D103
:10EF6000FAE71046F9E738B503460C4669B9BDE83B
:10EF70003840FFF7C5BF431C054621461846FFF73A
:10EF8000BFFF0028F7D1284638BD0025F5E700006F
:10EF9000012B2DE9F04701D0242B06D9FDF74EFABD
:10EFA000162303600020BDE8F0870D46DFF8E0C0BF
:10EFB0002E4615F8014B14F80C7017F00807F7D11E
:10EFC0002D2C32D12C780127B51C002B5BD0102BB7
:10EFD00009D1302C07D12C7804F0DF04582C4DD106
:10EFE0006C781023023507F100484FF0000C08F14F
:10EFF000FF386646B8FBF3F903FB198AA4F1300E1B
:10F00000BEF1090F16D87446A34224DDBCF1000FEF
:10F010001EDBB1451CD301D1A24519DB06FB03461B
:10F020004FF0010C15F8014BE8E72B2C04BF2C78AE
:10F03000B51CCAE7A4F1410EBEF1190F01D8373C47
:10F04000E2E7A4F1610EBEF1190F04D8573CDBE7EB
:10F050004FF0FF3CE6E7BCF1000F05DA22234646FD
:10F06000036042B930469EE707B17642002AF9D0E4
:10F07000BCF1000F00D0691E1160F3E73024002BB3
:10F08000B1D10823AFE7302CA5D00A23ABE700BFEE
:10F09000CAFE3F0213460A46014602480068FFF7CF
:10F0A00077BF00BF78AD07102DE9F843DFF8BC80CB
:10F0B00006461F460D46D8F80000914600F058F865
:10F0C000264B1C6834B9264C1C60264B13B11B68B8
:10F0D000C4F8883063681F2B07DDD8F8000000F003
:10F0E00049F84FF0FF30BDE8F8835EB3D4F88800EC
:10F0F00088B91D4B23B9D8F8000000F03AF8F0E7C2
:10F100004FF48470FDF762F90028F4D00023C0E9C1
:10F110004033C4F8880063680122022E40F823902F
:10F1200002FA03F200EB8301D0F8003143EA020354
:10F13000C0F80031C1F8807002BFD0F80431134329
:10F14000C0F804316368D8F800005A1C02336260CA
:10F1500044F8235000F00EF80020C4E7E0AF071099
:10F1600054AF07100000000075C93F02DCAD071066
:10F1700070477047704700007DB63F02A5B63F025A
:10F18000A9B63F020000000043616C6C206F6E2046
:10F1900070757265207669727475616C00436F6E6C
:10F1A0006669677572696E672073657269616C2044
:10F1B000706F727420746F20746865207461726758
:10F1C000657400526573657474696E672074686550
:10F1D000207461726765740047657420696E2073DE
:10F1E000796E632077697468207461726765742032
:10F1F000415652004572726F7220636F646520320F
:10F200003A204F7574206F662073796E6321004336
:10F210006865636B696E67206465766963652073F2
:10F2200069676E6174757265004572726F722063F2
:10F230006F646520333A2057726F6E67206465767D
:10F24000696365207369676E617475726521004535
:10F25000726173696E6720646576696365004572E3
:10F26000726F7220636F646520343A20436869705E
:10F27000206572617365206661696C757265210035
:10F2800053657474696E672070726F6772616D6D1B
:10F29000696E6720706172616D6574657273004597
:10F2A00072726F7220636F646520353A204661691F
:10F2B0006C75726520746F207772697465206F7247
:10F2C0002073657420706172616D65746572732F4F
:10F2D00064617461210053657474696E6720657898
:10F2E00074656E6465642070726F6772616D6D69BC
:10F2F0006E6720706172616D657465727300456E32
:10F30000746572696E672070726F6772616D6D6986
:10F310006E67206D6F646500417373657420002013
:10F320002053697A653A20256420627974657300F8
:10F3300053656E64696E672062696E6172792074CC
:10F340006F20746172676574004572726F7220631A
:10F350006F646520363A204661696C757265207469
:10F360006F20777269746520626C6F636B21004156
:10F37000646472657373202564204F6B004C656173
:10F3800076696E672070726F6772616D6D696E6706
:10F39000206D6F6465004572726F7220636F6465E3
:10F3A00020303A204661696C757265206C65617623
:10F3B000696E672070726F6772616D6D696E67202C
:10F3C0006D6F6465210052656C656173696E6720BD
:10F3D00074617267657427732073657269616C204C
:10F3E000706F727420616E64207265736574207032
:10F3F000696E0041726475696E6F20737563636531
:10F40000737366756C6C79207570646174656421C2
:10F41000004E6F74653A204E6F207665726966699A
:10F42000636174696F6E206F662074686520757003
:10F430006C6F616465642062696E617279207761C6
:10F4400073206D61646500747269676765724F74DB
:10F45000610052656164792E004173736574732095
:10F46000617661696C61626C653A20002C20005500
:10F470007064617465207472696767657220656E77
:10F4800061626C65642E00556E6F46572E62696E20
:10F490000056616C696420617373657420666F75D2
:10F4A0006E642E20466C617368696E672E004E6F25
:10F4B0002076616C696420617373657420666F7572
:10F4C0006E642E2055706461746520736B69707072
:10F4D00065642E0000000000000000000000000035
:10F4E00000000000C9B63F02F1B63F020000000074
:10F4F0000000000005B73F0239B73F024DE13F026F
:10F50000F5E23F0200000000000000007DCA3F025B
:10F51000A1CA3F02F3CA3F02AFCA3F0281CA3F02FB
:10F5200000000000000000000000000000000000DB
:10F53000BDCC3F02E5CC3F0279CA3F0205E63F025F
:10F540002FCE3F023FCA3F025BCA3F0277CA3F024B
:10F5500069CE3F02C1CD3F02F1CD3F020000000065
:10F5600000000000D5CF3F02CBCF3F02C1CF3F020A
:10F57000B7CF3F02ABCF3F029FCF3F02E1E43F0254
:10F58000E9E43F0293CF3F028BCF3F0281CF3F029E
:10F5900077CF3F0219E53F020000000000000000A5
:10F5A000F5CF3F023FD03F0217D03F02F7CF3F02D7
:10F5B0001FD03F0227D03F022FD03F0237D03F025B
:10F5C000000000000000000099D03F0289D03F02F7
:10F5D0008BD03F02256400257500752530347800F6
:10F5E000626175640053657269616C00536572698C
:10F5F000616C31004A534F4E53747265616D4C6FAC
:10F600006748616E646C657200617070002530310E
:10F61000307520005D200028293A2000205B00631F
:10F620006F6465203D200025690064657461696C24
:10F6300073203D20000D0A006D0066006C6E0066B0
:10F640006E00636F64650064657461696C0000003E
:10F65000000000000000000045D53F026BD53F02CE
:10F6600029D53F02A7D13F020000000000000000A2
:10F67000F9D93F0211DA3F024DE13F02F5E23F02C4
:10F68000000000000000000025DA3F0239DA3F02E6
:10F690002DE33F0231D53F020000000000000000D2
:10F6A00043D53F0279D53F02B1E03F0233D53F0257
:10F6B000000000000000000041D53F0287D53F0256
:10F6C00061D93F02A9D53F02000000000000000000
:10F6D000A1E43F02ABE43F02B5E43F02BFE43F02D6
:10F6E000C9E43F02D5E43F02E1E43F02E9E43F021E
:10F6F000F1E43F02FDE43F0205E53F020FE53F0272
:10F7000019E53F0225592D256D2D25645425483ACC
:10F71000254D3A2553257A0061736374696D650040
:10F720000000000000000000BDEA3F0229EB3F029C
:10F7300001EB3F0205E63F02D1EA3F02EDEA3F025C
:10F74000DFEA3F02FBEA3F02BFEA3F02C3EA3F02B1
:10F75000000000000000000087EB3F02EFEB3F02DB
:10F76000C5EB3F0205E63F02B7EB3F0289EB3F02E4
:10F7700099EB3F02E9EB3F02A9EB3F0281EB3F022D
:10F780000000000000000000EFEC3F02E5EC3F024B
:10F79000DBEC3F0291EC3F02CFEC3F02C3EC3F02B7
:10F7A000E1E43F02E9E43F02B7EC3F02AFEC3F0285
:10F7B000A5EC3F029BEC3F0219E53F020053743178
:10F7C000395F53705F6D616B655F7368617265640B
:10F7D0005F74616700000000C0FD3F0265FD3F02ED
:10F7E00020FE3F0294FD3F0244FE3F024E31305F57
:10F7F0005F637878616269763131375F5F636C612E
:10F8000073735F747970655F696E666F45000000A1
:10F810000000000088FD3F02F9F13F020DF23F02B7
:10F82000A1F33F02A1F33F0277F23F02B9F13F0299
:10F830005FF23F0221F23F02EBF13F0220FE3F0266
:10F84000F0FD3F0288FD3F024E31305F5F63787804
:10F85000616269763132305F5F73695F636C6173D7
:10F86000735F747970655F696E666F4500000000B4
:10F8700000000000E4FD3F02A1F23F02B5F23F02AA
:10F88000A1F33F02A1F33F0277F23F02B9F13F0239
:10F8900075F33F0201F33F02C9F23F02C0FD3F0290
:10F8A0004CFE3F02537439747970655F696E666F00
:10F8B000005245454E54206D616C6C6F632073752A
:10F8C00063636565646564002F746D702F6A656E8F
:10F8D0006B696E732D4743432D31302D7069706510
:10F8E0006C696E652D34385F3230323031313234EC
:10F8F0005F313630363138303633392F7372632FFB
:10F900006E65776C69622F6E65776C69622F6C69C2
:10F9100062632F7374646C69622F72616E642E630C
:10F9200000002020202020202020202828282828EF
:10F9300020202020202020202020202020202020C7
:10F94000202088101010101010101010101010101F
:10F95000101004040404040404040404101010101F
:10F9600010101041414141414101010101010101DA
:10F97000010101010101010101010101011010104A
:10F9800010101042424242424202020202020202AD
:10F99000020202020202020202020202021010101D
:10F9A0001020000000000000000000000000000027
:10F9B0000000000000000000000000000000000047
:10F9C0000000000000000000000000000000000037
:10F9D0000000000000000000000000000000000027
:10F9E0000000000000000000000000000000000017
:10F9F0000000000000000000000000000000000007
:10FA000000000000000000000000000000000000F6
:10FA100000000000000000000000000000000000E6
:10FA200000000000D1C03F0219CF3F02E1CF3F02EA
:10FA30003DE13F02F1E53F0299E63F0285EA3F02E0
:08FA4000A9EA3F02F9EC3F02C4
:10FA48000000000248FC3F0260FC3F02C0FC3F028D
:10FA58007CAD07100000000000000000000000005E
:10FA6800000000000000000000000000000000008E
:10FA7800000000000000000000000000000000007E
:10FA8800000000000000000000000000000000006E
:10FA9800000000000000000000000000000000005E
:10FAA800000000000000000000000000000000004E
:08FAB80000000000E4AF07109C
:04FAC0000000000042
:10FFBE000200100000B05F08A8B05F0850B63F0204
:10FFCE0001000A00FFFFFFFFFFFF00000102030414
:10FFDE0005060708090A0B0C0D0E0F10111213144B
:0EFFEE0015161718191A1B1C1D1E1F203E0089
:04FFFC0078563412ED
:04000005085FB018C8
:00000001FF
